{
  "_format": "hh-sol-artifact-1",
  "contractName": "YDIYOI",
  "sourceName": "contracts/YDIYOI.sol",
  "abi": [
    {
      "inputs": [
        {
          "internalType": "contract MinimalForwarder",
          "name": "forwarder",
          "type": "address"
        }
      ],
      "stateMutability": "nonpayable",
      "type": "constructor"
    },
    {
      "anonymous": false,
      "inputs": [
        {
          "indexed": true,
          "internalType": "address",
          "name": "owner",
          "type": "address"
        },
        {
          "indexed": true,
          "internalType": "address",
          "name": "approved",
          "type": "address"
        },
        {
          "indexed": true,
          "internalType": "uint256",
          "name": "tokenId",
          "type": "uint256"
        }
      ],
      "name": "Approval",
      "type": "event"
    },
    {
      "anonymous": false,
      "inputs": [
        {
          "indexed": true,
          "internalType": "address",
          "name": "owner",
          "type": "address"
        },
        {
          "indexed": true,
          "internalType": "address",
          "name": "operator",
          "type": "address"
        },
        {
          "indexed": false,
          "internalType": "bool",
          "name": "approved",
          "type": "bool"
        }
      ],
      "name": "ApprovalForAll",
      "type": "event"
    },
    {
      "anonymous": false,
      "inputs": [
        {
          "indexed": true,
          "internalType": "address",
          "name": "previousOwner",
          "type": "address"
        },
        {
          "indexed": true,
          "internalType": "address",
          "name": "newOwner",
          "type": "address"
        }
      ],
      "name": "OwnershipTransferred",
      "type": "event"
    },
    {
      "anonymous": false,
      "inputs": [
        {
          "indexed": true,
          "internalType": "address",
          "name": "from",
          "type": "address"
        },
        {
          "indexed": true,
          "internalType": "address",
          "name": "to",
          "type": "address"
        },
        {
          "indexed": true,
          "internalType": "uint256",
          "name": "tokenId",
          "type": "uint256"
        }
      ],
      "name": "Transfer",
      "type": "event"
    },
    {
      "inputs": [
        {
          "internalType": "address",
          "name": "to",
          "type": "address"
        },
        {
          "internalType": "uint256",
          "name": "tokenId",
          "type": "uint256"
        }
      ],
      "name": "approve",
      "outputs": [],
      "stateMutability": "nonpayable",
      "type": "function"
    },
    {
      "inputs": [
        {
          "internalType": "address",
          "name": "owner",
          "type": "address"
        }
      ],
      "name": "balanceOf",
      "outputs": [
        {
          "internalType": "uint256",
          "name": "",
          "type": "uint256"
        }
      ],
      "stateMutability": "view",
      "type": "function"
    },
    {
      "inputs": [
        {
          "internalType": "uint256",
          "name": "tokenId",
          "type": "uint256"
        }
      ],
      "name": "getApproved",
      "outputs": [
        {
          "internalType": "address",
          "name": "",
          "type": "address"
        }
      ],
      "stateMutability": "view",
      "type": "function"
    },
    {
      "inputs": [
        {
          "internalType": "address",
          "name": "owner",
          "type": "address"
        },
        {
          "internalType": "address",
          "name": "operator",
          "type": "address"
        }
      ],
      "name": "isApprovedForAll",
      "outputs": [
        {
          "internalType": "bool",
          "name": "",
          "type": "bool"
        }
      ],
      "stateMutability": "view",
      "type": "function"
    },
    {
      "inputs": [
        {
          "internalType": "address",
          "name": "forwarder",
          "type": "address"
        }
      ],
      "name": "isTrustedForwarder",
      "outputs": [
        {
          "internalType": "bool",
          "name": "",
          "type": "bool"
        }
      ],
      "stateMutability": "view",
      "type": "function"
    },
    {
      "inputs": [],
      "name": "name",
      "outputs": [
        {
          "internalType": "string",
          "name": "",
          "type": "string"
        }
      ],
      "stateMutability": "view",
      "type": "function"
    },
    {
      "inputs": [],
      "name": "owner",
      "outputs": [
        {
          "internalType": "address",
          "name": "",
          "type": "address"
        }
      ],
      "stateMutability": "view",
      "type": "function"
    },
    {
      "inputs": [
        {
          "internalType": "uint256",
          "name": "tokenId",
          "type": "uint256"
        }
      ],
      "name": "ownerOf",
      "outputs": [
        {
          "internalType": "address",
          "name": "",
          "type": "address"
        }
      ],
      "stateMutability": "view",
      "type": "function"
    },
    {
      "inputs": [],
      "name": "renounceOwnership",
      "outputs": [],
      "stateMutability": "nonpayable",
      "type": "function"
    },
    {
      "inputs": [
        {
          "internalType": "address",
          "name": "to",
          "type": "address"
        },
        {
          "internalType": "string",
          "name": "uri",
          "type": "string"
        }
      ],
      "name": "safeMint",
      "outputs": [],
      "stateMutability": "nonpayable",
      "type": "function"
    },
    {
      "inputs": [
        {
          "internalType": "address",
          "name": "from",
          "type": "address"
        },
        {
          "internalType": "address",
          "name": "to",
          "type": "address"
        },
        {
          "internalType": "uint256",
          "name": "tokenId",
          "type": "uint256"
        }
      ],
      "name": "safeTransferFrom",
      "outputs": [],
      "stateMutability": "nonpayable",
      "type": "function"
    },
    {
      "inputs": [
        {
          "internalType": "address",
          "name": "from",
          "type": "address"
        },
        {
          "internalType": "address",
          "name": "to",
          "type": "address"
        },
        {
          "internalType": "uint256",
          "name": "tokenId",
          "type": "uint256"
        },
        {
          "internalType": "bytes",
          "name": "_data",
          "type": "bytes"
        }
      ],
      "name": "safeTransferFrom",
      "outputs": [],
      "stateMutability": "nonpayable",
      "type": "function"
    },
    {
      "inputs": [
        {
          "internalType": "address",
          "name": "operator",
          "type": "address"
        },
        {
          "internalType": "bool",
          "name": "approved",
          "type": "bool"
        }
      ],
      "name": "setApprovalForAll",
      "outputs": [],
      "stateMutability": "nonpayable",
      "type": "function"
    },
    {
      "inputs": [
        {
          "internalType": "bytes4",
          "name": "interfaceId",
          "type": "bytes4"
        }
      ],
      "name": "supportsInterface",
      "outputs": [
        {
          "internalType": "bool",
          "name": "",
          "type": "bool"
        }
      ],
      "stateMutability": "view",
      "type": "function"
    },
    {
      "inputs": [],
      "name": "symbol",
      "outputs": [
        {
          "internalType": "string",
          "name": "",
          "type": "string"
        }
      ],
      "stateMutability": "view",
      "type": "function"
    },
    {
      "inputs": [
        {
          "internalType": "uint256",
          "name": "index",
          "type": "uint256"
        }
      ],
      "name": "tokenByIndex",
      "outputs": [
        {
          "internalType": "uint256",
          "name": "",
          "type": "uint256"
        }
      ],
      "stateMutability": "view",
      "type": "function"
    },
    {
      "inputs": [
        {
          "internalType": "address",
          "name": "owner",
          "type": "address"
        },
        {
          "internalType": "uint256",
          "name": "index",
          "type": "uint256"
        }
      ],
      "name": "tokenOfOwnerByIndex",
      "outputs": [
        {
          "internalType": "uint256",
          "name": "",
          "type": "uint256"
        }
      ],
      "stateMutability": "view",
      "type": "function"
    },
    {
      "inputs": [
        {
          "internalType": "uint256",
          "name": "tokenId",
          "type": "uint256"
        }
      ],
      "name": "tokenURI",
      "outputs": [
        {
          "internalType": "string",
          "name": "",
          "type": "string"
        }
      ],
      "stateMutability": "view",
      "type": "function"
    },
    {
      "inputs": [],
      "name": "totalSupply",
      "outputs": [
        {
          "internalType": "uint256",
          "name": "",
          "type": "uint256"
        }
      ],
      "stateMutability": "view",
      "type": "function"
    },
    {
      "inputs": [
        {
          "internalType": "address",
          "name": "from",
          "type": "address"
        },
        {
          "internalType": "address",
          "name": "to",
          "type": "address"
        },
        {
          "internalType": "uint256",
          "name": "tokenId",
          "type": "uint256"
        }
      ],
      "name": "transferFrom",
      "outputs": [],
      "stateMutability": "nonpayable",
      "type": "function"
    },
    {
      "inputs": [
        {
          "internalType": "address",
          "name": "newOwner",
          "type": "address"
        }
      ],
      "name": "transferOwnership",
      "outputs": [],
      "stateMutability": "nonpayable",
      "type": "function"
    }
  ],
  "bytecode": "0x60806040523480156200001157600080fd5b5060405162003d5438038062003d54833981810160405281019062000037919062000396565b806040518060400160405280601881526020017f596f75204472696e6b2049742c20596f75204f776e20497400000000000000008152506040518060400160405280600b81526020017f594449594f4920762e30670000000000000000000000000000000000000000008152508160009080519060200190620000bc929190620002cf565b508060019080519060200190620000d5929190620002cf565b505050620000f8620000ec6200014160201b60201c565b6200015d60201b60201c565b80600c60006101000a81548173ffffffffffffffffffffffffffffffffffffffff021916908373ffffffffffffffffffffffffffffffffffffffff160217905550505062000489565b6000620001586200022360201b62000d8b1760201c565b905090565b6000600b60009054906101000a900473ffffffffffffffffffffffffffffffffffffffff16905081600b60006101000a81548173ffffffffffffffffffffffffffffffffffffffff021916908373ffffffffffffffffffffffffffffffffffffffff1602179055508173ffffffffffffffffffffffffffffffffffffffff168173ffffffffffffffffffffffffffffffffffffffff167f8be0079c531659141344cd1fd0a4f28419497f9722a3daafe3b4186f6b6457e060405160405180910390a35050565b600062000236336200026d60201b60201c565b156200024c57601436033560601c905062000269565b62000261620002c760201b62000dbd1760201c565b90506200026a565b5b90565b6000600c60009054906101000a900473ffffffffffffffffffffffffffffffffffffffff1673ffffffffffffffffffffffffffffffffffffffff168273ffffffffffffffffffffffffffffffffffffffff16149050919050565b600033905090565b828054620002dd906200040a565b90600052602060002090601f0160209004810192826200030157600085556200034d565b82601f106200031c57805160ff19168380011785556200034d565b828001600101855582156200034d579182015b828111156200034c5782518255916020019190600101906200032f565b5b5090506200035c919062000360565b5090565b5b808211156200037b57600081600090555060010162000361565b5090565b60008151905062000390816200046f565b92915050565b600060208284031215620003a957600080fd5b6000620003b9848285016200037f565b91505092915050565b6000620003cf82620003ea565b9050919050565b6000620003e382620003c2565b9050919050565b600073ffffffffffffffffffffffffffffffffffffffff82169050919050565b600060028204905060018216806200042357607f821691505b602082108114156200043a576200043962000440565b5b50919050565b7f4e487b7100000000000000000000000000000000000000000000000000000000600052602260045260246000fd5b6200047a81620003d6565b81146200048657600080fd5b50565b6138bb80620004996000396000f3fe608060405234801561001057600080fd5b50600436106101375760003560e01c80636352211e116100b8578063a22cb4651161007c578063a22cb46514610362578063b88d4fde1461037e578063c87b56dd1461039a578063d204c45e146103ca578063e985e9c5146103e6578063f2fde38b1461041657610137565b80636352211e146102bc57806370a08231146102ec578063715018a61461031c5780638da5cb5b1461032657806395d89b411461034457610137565b806323b872dd116100ff57806323b872dd146101f45780632f745c591461021057806342842e0e146102405780634f6ccce71461025c578063572b6c051461028c57610137565b806301ffc9a71461013c57806306fdde031461016c578063081812fc1461018a578063095ea7b3146101ba57806318160ddd146101d6575b600080fd5b61015660048036038101906101519190612746565b610432565b6040516101639190612bd8565b60405180910390f35b610174610444565b6040516101819190612bf3565b60405180910390f35b6101a4600480360381019061019f9190612798565b6104d6565b6040516101b19190612b71565b60405180910390f35b6101d460048036038101906101cf919061270a565b61055b565b005b6101de610673565b6040516101eb9190612e95565b60405180910390f35b61020e600480360381019061020991906125b0565b610680565b005b61022a6004803603810190610225919061270a565b6106e0565b6040516102379190612e95565b60405180910390f35b61025a600480360381019061025591906125b0565b610785565b005b61027660048036038101906102719190612798565b6107a5565b6040516102839190612e95565b60405180910390f35b6102a660048036038101906102a1919061254b565b61083c565b6040516102b39190612bd8565b60405180910390f35b6102d660048036038101906102d19190612798565b610896565b6040516102e39190612b71565b60405180910390f35b6103066004803603810190610301919061254b565b610948565b6040516103139190612e95565b60405180910390f35b610324610a00565b005b61032e610a88565b60405161033b9190612b71565b60405180910390f35b61034c610ab2565b6040516103599190612bf3565b60405180910390f35b61037c6004803603810190610377919061267a565b610b44565b005b610398600480360381019061039391906125ff565b610b5a565b005b6103b460048036038101906103af9190612798565b610bbc565b6040516103c19190612bf3565b60405180910390f35b6103e460048036038101906103df91906126b6565b610bce565b005b61040060048036038101906103fb9190612574565b610bff565b60405161040d9190612bd8565b60405180910390f35b610430600480360381019061042b919061254b565b610c93565b005b600061043d82610dc5565b9050919050565b606060008054610453906130eb565b80601f016020809104026020016040519081016040528092919081815260200182805461047f906130eb565b80156104cc5780601f106104a1576101008083540402835291602001916104cc565b820191906000526020600020905b8154815290600101906020018083116104af57829003601f168201915b5050505050905090565b60006104e182610e3f565b610520576040517f08c379a000000000000000000000000000000000000000000000000000000000815260040161051790612db5565b60405180910390fd5b6004600083815260200190815260200160002060009054906101000a900473ffffffffffffffffffffffffffffffffffffffff169050919050565b600061056682610896565b90508073ffffffffffffffffffffffffffffffffffffffff168373ffffffffffffffffffffffffffffffffffffffff1614156105d7576040517f08c379a00000000000000000000000000000000000000000000000000000000081526004016105ce90612e35565b60405180910390fd5b8073ffffffffffffffffffffffffffffffffffffffff166105f6610eab565b73ffffffffffffffffffffffffffffffffffffffff16148061062557506106248161061f610eab565b610bff565b5b610664576040517f08c379a000000000000000000000000000000000000000000000000000000000815260040161065b90612cf5565b60405180910390fd5b61066e8383610eba565b505050565b6000600880549050905090565b61069161068b610eab565b82610f73565b6106d0576040517f08c379a00000000000000000000000000000000000000000000000000000000081526004016106c790612e55565b60405180910390fd5b6106db838383611051565b505050565b60006106eb83610948565b821061072c576040517f08c379a000000000000000000000000000000000000000000000000000000000815260040161072390612c15565b60405180910390fd5b600660008473ffffffffffffffffffffffffffffffffffffffff1673ffffffffffffffffffffffffffffffffffffffff168152602001908152602001600020600083815260200190815260200160002054905092915050565b6107a083838360405180602001604052806000815250610b5a565b505050565b60006107af610673565b82106107f0576040517f08c379a00000000000000000000000000000000000000000000000000000000081526004016107e790612e75565b60405180910390fd5b6008828154811061082a577f4e487b7100000000000000000000000000000000000000000000000000000000600052603260045260246000fd5b90600052602060002001549050919050565b6000600c60009054906101000a900473ffffffffffffffffffffffffffffffffffffffff1673ffffffffffffffffffffffffffffffffffffffff168273ffffffffffffffffffffffffffffffffffffffff16149050919050565b6000806002600084815260200190815260200160002060009054906101000a900473ffffffffffffffffffffffffffffffffffffffff169050600073ffffffffffffffffffffffffffffffffffffffff168173ffffffffffffffffffffffffffffffffffffffff16141561093f576040517f08c379a000000000000000000000000000000000000000000000000000000000815260040161093690612d35565b60405180910390fd5b80915050919050565b60008073ffffffffffffffffffffffffffffffffffffffff168273ffffffffffffffffffffffffffffffffffffffff1614156109b9576040517f08c379a00000000000000000000000000000000000000000000000000000000081526004016109b090612d15565b60405180910390fd5b600360008373ffffffffffffffffffffffffffffffffffffffff1673ffffffffffffffffffffffffffffffffffffffff168152602001908152602001600020549050919050565b610a08610eab565b73ffffffffffffffffffffffffffffffffffffffff16610a26610a88565b73ffffffffffffffffffffffffffffffffffffffff1614610a7c576040517f08c379a0000000000000000000000000000000000000000000000000000000008152600401610a7390612dd5565b60405180910390fd5b610a8660006112ad565b565b6000600b60009054906101000a900473ffffffffffffffffffffffffffffffffffffffff16905090565b606060018054610ac1906130eb565b80601f0160208091040260200160405190810160405280929190818152602001828054610aed906130eb565b8015610b3a5780601f10610b0f57610100808354040283529160200191610b3a565b820191906000526020600020905b815481529060010190602001808311610b1d57829003601f168201915b5050505050905090565b610b56610b4f610eab565b8383611373565b5050565b610b6b610b65610eab565b83610f73565b610baa576040517f08c379a0000000000000000000000000000000000000000000000000000000008152600401610ba190612e55565b60405180910390fd5b610bb6848484846114e0565b50505050565b6060610bc78261153c565b9050919050565b6000610bda600d61168e565b9050610be6600d61169c565b610bf083826116b2565b610bfa81836116d0565b505050565b6000600560008473ffffffffffffffffffffffffffffffffffffffff1673ffffffffffffffffffffffffffffffffffffffff16815260200190815260200160002060008373ffffffffffffffffffffffffffffffffffffffff1673ffffffffffffffffffffffffffffffffffffffff16815260200190815260200160002060009054906101000a900460ff16905092915050565b610c9b610eab565b73ffffffffffffffffffffffffffffffffffffffff16610cb9610a88565b73ffffffffffffffffffffffffffffffffffffffff1614610d0f576040517f08c379a0000000000000000000000000000000000000000000000000000000008152600401610d0690612dd5565b60405180910390fd5b600073ffffffffffffffffffffffffffffffffffffffff168173ffffffffffffffffffffffffffffffffffffffff161415610d7f576040517f08c379a0000000000000000000000000000000000000000000000000000000008152600401610d7690612c55565b60405180910390fd5b610d88816112ad565b50565b6000610d963361083c565b15610daa57601436033560601c9050610db9565b610db2610dbd565b9050610dba565b5b90565b600033905090565b60007f780e9d63000000000000000000000000000000000000000000000000000000007bffffffffffffffffffffffffffffffffffffffffffffffffffffffff1916827bffffffffffffffffffffffffffffffffffffffffffffffffffffffff19161480610e385750610e3782611744565b5b9050919050565b60008073ffffffffffffffffffffffffffffffffffffffff166002600084815260200190815260200160002060009054906101000a900473ffffffffffffffffffffffffffffffffffffffff1673ffffffffffffffffffffffffffffffffffffffff1614159050919050565b6000610eb5610d8b565b905090565b816004600083815260200190815260200160002060006101000a81548173ffffffffffffffffffffffffffffffffffffffff021916908373ffffffffffffffffffffffffffffffffffffffff160217905550808273ffffffffffffffffffffffffffffffffffffffff16610f2d83610896565b73ffffffffffffffffffffffffffffffffffffffff167f8c5be1e5ebec7d5bd14f71427d1e84f3dd0314c0f7b2291e5b200ac8c7c3b92560405160405180910390a45050565b6000610f7e82610e3f565b610fbd576040517f08c379a0000000000000000000000000000000000000000000000000000000008152600401610fb490612cd5565b60405180910390fd5b6000610fc883610896565b90508073ffffffffffffffffffffffffffffffffffffffff168473ffffffffffffffffffffffffffffffffffffffff16148061103757508373ffffffffffffffffffffffffffffffffffffffff1661101f846104d6565b73ffffffffffffffffffffffffffffffffffffffff16145b8061104857506110478185610bff565b5b91505092915050565b8273ffffffffffffffffffffffffffffffffffffffff1661107182610896565b73ffffffffffffffffffffffffffffffffffffffff16146110c7576040517f08c379a00000000000000000000000000000000000000000000000000000000081526004016110be90612df5565b60405180910390fd5b600073ffffffffffffffffffffffffffffffffffffffff168273ffffffffffffffffffffffffffffffffffffffff161415611137576040517f08c379a000000000000000000000000000000000000000000000000000000000815260040161112e90612c95565b60405180910390fd5b611142838383611826565b61114d600082610eba565b6001600360008573ffffffffffffffffffffffffffffffffffffffff1673ffffffffffffffffffffffffffffffffffffffff168152602001908152602001600020600082825461119d9190613001565b925050819055506001600360008473ffffffffffffffffffffffffffffffffffffffff1673ffffffffffffffffffffffffffffffffffffffff16815260200190815260200160002060008282546111f49190612f7a565b92505081905550816002600083815260200190815260200160002060006101000a81548173ffffffffffffffffffffffffffffffffffffffff021916908373ffffffffffffffffffffffffffffffffffffffff160217905550808273ffffffffffffffffffffffffffffffffffffffff168473ffffffffffffffffffffffffffffffffffffffff167fddf252ad1be2c89b69c2b068fc378daa952ba7f163c4a11628f55a4df523b3ef60405160405180910390a4505050565b6000600b60009054906101000a900473ffffffffffffffffffffffffffffffffffffffff16905081600b60006101000a81548173ffffffffffffffffffffffffffffffffffffffff021916908373ffffffffffffffffffffffffffffffffffffffff1602179055508173ffffffffffffffffffffffffffffffffffffffff168173ffffffffffffffffffffffffffffffffffffffff167f8be0079c531659141344cd1fd0a4f28419497f9722a3daafe3b4186f6b6457e060405160405180910390a35050565b8173ffffffffffffffffffffffffffffffffffffffff168373ffffffffffffffffffffffffffffffffffffffff1614156113e2576040517f08c379a00000000000000000000000000000000000000000000000000000000081526004016113d990612cb5565b60405180910390fd5b80600560008573ffffffffffffffffffffffffffffffffffffffff1673ffffffffffffffffffffffffffffffffffffffff16815260200190815260200160002060008473ffffffffffffffffffffffffffffffffffffffff1673ffffffffffffffffffffffffffffffffffffffff16815260200190815260200160002060006101000a81548160ff0219169083151502179055508173ffffffffffffffffffffffffffffffffffffffff168373ffffffffffffffffffffffffffffffffffffffff167f17307eab39ab6107e8899845ad3d59bd9653f200f220920489ca2b5937696c31836040516114d39190612bd8565b60405180910390a3505050565b6114eb848484611051565b6114f784848484611836565b611536576040517f08c379a000000000000000000000000000000000000000000000000000000000815260040161152d90612c35565b60405180910390fd5b50505050565b606061154782610e3f565b611586576040517f08c379a000000000000000000000000000000000000000000000000000000000815260040161157d90612d95565b60405180910390fd5b6000600a600084815260200190815260200160002080546115a6906130eb565b80601f01602080910402602001604051908101604052809291908181526020018280546115d2906130eb565b801561161f5780601f106115f45761010080835404028352916020019161161f565b820191906000526020600020905b81548152906001019060200180831161160257829003601f168201915b5050505050905060006116306119cd565b9050600081511415611646578192505050611689565b60008251111561167b578082604051602001611663929190612b4d565b60405160208183030381529060405292505050611689565b611684846119e4565b925050505b919050565b600081600001549050919050565b6001816000016000828254019250508190555050565b6116cc828260405180602001604052806000815250611a8b565b5050565b6116d982610e3f565b611718576040517f08c379a000000000000000000000000000000000000000000000000000000000815260040161170f90612d55565b60405180910390fd5b80600a6000848152602001908152602001600020908051906020019061173f92919061236f565b505050565b60007f80ac58cd000000000000000000000000000000000000000000000000000000007bffffffffffffffffffffffffffffffffffffffffffffffffffffffff1916827bffffffffffffffffffffffffffffffffffffffffffffffffffffffff1916148061180f57507f5b5e139f000000000000000000000000000000000000000000000000000000007bffffffffffffffffffffffffffffffffffffffffffffffffffffffff1916827bffffffffffffffffffffffffffffffffffffffffffffffffffffffff1916145b8061181f575061181e82611ae6565b5b9050919050565b611831838383611b50565b505050565b60006118578473ffffffffffffffffffffffffffffffffffffffff16611c64565b156119c0578373ffffffffffffffffffffffffffffffffffffffff1663150b7a02611880610eab565b8786866040518563ffffffff1660e01b81526004016118a29493929190612b8c565b602060405180830381600087803b1580156118bc57600080fd5b505af19250505080156118ed57506040513d601f19601f820116820180604052508101906118ea919061276f565b60015b611970573d806000811461191d576040519150601f19603f3d011682016040523d82523d6000602084013e611922565b606091505b50600081511415611968576040517f08c379a000000000000000000000000000000000000000000000000000000000815260040161195f90612c35565b60405180910390fd5b805181602001fd5b63150b7a0260e01b7bffffffffffffffffffffffffffffffffffffffffffffffffffffffff1916817bffffffffffffffffffffffffffffffffffffffffffffffffffffffff1916149150506119c5565b600190505b949350505050565b606060405180602001604052806000815250905090565b60606119ef82610e3f565b611a2e576040517f08c379a0000000000000000000000000000000000000000000000000000000008152600401611a2590612e15565b60405180910390fd5b6000611a386119cd565b90506000815111611a585760405180602001604052806000815250611a83565b80611a6284611c77565b604051602001611a73929190612b4d565b6040516020818303038152906040525b915050919050565b611a958383611e24565b611aa26000848484611836565b611ae1576040517f08c379a0000000000000000000000000000000000000000000000000000000008152600401611ad890612c35565b60405180910390fd5b505050565b60007f01ffc9a7000000000000000000000000000000000000000000000000000000007bffffffffffffffffffffffffffffffffffffffffffffffffffffffff1916827bffffffffffffffffffffffffffffffffffffffffffffffffffffffff1916149050919050565b611b5b838383611ff2565b600073ffffffffffffffffffffffffffffffffffffffff168373ffffffffffffffffffffffffffffffffffffffff161415611b9e57611b9981611ff7565b611bdd565b8173ffffffffffffffffffffffffffffffffffffffff168373ffffffffffffffffffffffffffffffffffffffff1614611bdc57611bdb8382612040565b5b5b600073ffffffffffffffffffffffffffffffffffffffff168273ffffffffffffffffffffffffffffffffffffffff161415611c2057611c1b816121ad565b611c5f565b8273ffffffffffffffffffffffffffffffffffffffff168273ffffffffffffffffffffffffffffffffffffffff1614611c5e57611c5d82826122f0565b5b5b505050565b600080823b905060008111915050919050565b60606000821415611cbf576040518060400160405280600181526020017f30000000000000000000000000000000000000000000000000000000000000008152509050611e1f565b600082905060005b60008214611cf1578080611cda9061314e565b915050600a82611cea9190612fd0565b9150611cc7565b60008167ffffffffffffffff811115611d33577f4e487b7100000000000000000000000000000000000000000000000000000000600052604160045260246000fd5b6040519080825280601f01601f191660200182016040528015611d655781602001600182028036833780820191505090505b5090505b60008514611e1857600182611d7e9190613001565b9150600a85611d8d9190613197565b6030611d999190612f7a565b60f81b818381518110611dd5577f4e487b7100000000000000000000000000000000000000000000000000000000600052603260045260246000fd5b60200101907effffffffffffffffffffffffffffffffffffffffffffffffffffffffffffff1916908160001a905350600a85611e119190612fd0565b9450611d69565b8093505050505b919050565b600073ffffffffffffffffffffffffffffffffffffffff168273ffffffffffffffffffffffffffffffffffffffff161415611e94576040517f08c379a0000000000000000000000000000000000000000000000000000000008152600401611e8b90612d75565b60405180910390fd5b611e9d81610e3f565b15611edd576040517f08c379a0000000000000000000000000000000000000000000000000000000008152600401611ed490612c75565b60405180910390fd5b611ee960008383611826565b6001600360008473ffffffffffffffffffffffffffffffffffffffff1673ffffffffffffffffffffffffffffffffffffffff1681526020019081526020016000206000828254611f399190612f7a565b92505081905550816002600083815260200190815260200160002060006101000a81548173ffffffffffffffffffffffffffffffffffffffff021916908373ffffffffffffffffffffffffffffffffffffffff160217905550808273ffffffffffffffffffffffffffffffffffffffff16600073ffffffffffffffffffffffffffffffffffffffff167fddf252ad1be2c89b69c2b068fc378daa952ba7f163c4a11628f55a4df523b3ef60405160405180910390a45050565b505050565b6008805490506009600083815260200190815260200160002081905550600881908060018154018082558091505060019003906000526020600020016000909190919091505550565b6000600161204d84610948565b6120579190613001565b905060006007600084815260200190815260200160002054905081811461213c576000600660008673ffffffffffffffffffffffffffffffffffffffff1673ffffffffffffffffffffffffffffffffffffffff168152602001908152602001600020600084815260200190815260200160002054905080600660008773ffffffffffffffffffffffffffffffffffffffff1673ffffffffffffffffffffffffffffffffffffffff168152602001908152602001600020600084815260200190815260200160002081905550816007600083815260200190815260200160002081905550505b6007600084815260200190815260200160002060009055600660008573ffffffffffffffffffffffffffffffffffffffff1673ffffffffffffffffffffffffffffffffffffffff16815260200190815260200160002060008381526020019081526020016000206000905550505050565b600060016008805490506121c19190613001565b9050600060096000848152602001908152602001600020549050600060088381548110612217577f4e487b7100000000000000000000000000000000000000000000000000000000600052603260045260246000fd5b90600052602060002001549050806008838154811061225f577f4e487b7100000000000000000000000000000000000000000000000000000000600052603260045260246000fd5b9060005260206000200181905550816009600083815260200190815260200160002081905550600960008581526020019081526020016000206000905560088054806122d4577f4e487b7100000000000000000000000000000000000000000000000000000000600052603160045260246000fd5b6001900381819060005260206000200160009055905550505050565b60006122fb83610948565b905081600660008573ffffffffffffffffffffffffffffffffffffffff1673ffffffffffffffffffffffffffffffffffffffff168152602001908152602001600020600083815260200190815260200160002081905550806007600084815260200190815260200160002081905550505050565b82805461237b906130eb565b90600052602060002090601f01602090048101928261239d57600085556123e4565b82601f106123b657805160ff19168380011785556123e4565b828001600101855582156123e4579182015b828111156123e35782518255916020019190600101906123c8565b5b5090506123f191906123f5565b5090565b5b8082111561240e5760008160009055506001016123f6565b5090565b600061242561242084612ed5565b612eb0565b90508281526020810184848401111561243d57600080fd5b6124488482856130a9565b509392505050565b600061246361245e84612f06565b612eb0565b90508281526020810184848401111561247b57600080fd5b6124868482856130a9565b509392505050565b60008135905061249d81613829565b92915050565b6000813590506124b281613840565b92915050565b6000813590506124c781613857565b92915050565b6000815190506124dc81613857565b92915050565b600082601f8301126124f357600080fd5b8135612503848260208601612412565b91505092915050565b600082601f83011261251d57600080fd5b813561252d848260208601612450565b91505092915050565b6000813590506125458161386e565b92915050565b60006020828403121561255d57600080fd5b600061256b8482850161248e565b91505092915050565b6000806040838503121561258757600080fd5b60006125958582860161248e565b92505060206125a68582860161248e565b9150509250929050565b6000806000606084860312156125c557600080fd5b60006125d38682870161248e565b93505060206125e48682870161248e565b92505060406125f586828701612536565b9150509250925092565b6000806000806080858703121561261557600080fd5b60006126238782880161248e565b94505060206126348782880161248e565b935050604061264587828801612536565b925050606085013567ffffffffffffffff81111561266257600080fd5b61266e878288016124e2565b91505092959194509250565b6000806040838503121561268d57600080fd5b600061269b8582860161248e565b92505060206126ac858286016124a3565b9150509250929050565b600080604083850312156126c957600080fd5b60006126d78582860161248e565b925050602083013567ffffffffffffffff8111156126f457600080fd5b6127008582860161250c565b9150509250929050565b6000806040838503121561271d57600080fd5b600061272b8582860161248e565b925050602061273c85828601612536565b9150509250929050565b60006020828403121561275857600080fd5b6000612766848285016124b8565b91505092915050565b60006020828403121561278157600080fd5b600061278f848285016124cd565b91505092915050565b6000602082840312156127aa57600080fd5b60006127b884828501612536565b91505092915050565b6127ca81613035565b82525050565b6127d981613047565b82525050565b60006127ea82612f37565b6127f48185612f4d565b93506128048185602086016130b8565b61280d81613284565b840191505092915050565b600061282382612f42565b61282d8185612f5e565b935061283d8185602086016130b8565b61284681613284565b840191505092915050565b600061285c82612f42565b6128668185612f6f565b93506128768185602086016130b8565b80840191505092915050565b600061288f602b83612f5e565b915061289a82613295565b604082019050919050565b60006128b2603283612f5e565b91506128bd826132e4565b604082019050919050565b60006128d5602683612f5e565b91506128e082613333565b604082019050919050565b60006128f8601c83612f5e565b915061290382613382565b602082019050919050565b600061291b602483612f5e565b9150612926826133ab565b604082019050919050565b600061293e601983612f5e565b9150612949826133fa565b602082019050919050565b6000612961602c83612f5e565b915061296c82613423565b604082019050919050565b6000612984603883612f5e565b915061298f82613472565b604082019050919050565b60006129a7602a83612f5e565b91506129b2826134c1565b604082019050919050565b60006129ca602983612f5e565b91506129d582613510565b604082019050919050565b60006129ed602e83612f5e565b91506129f88261355f565b604082019050919050565b6000612a10602083612f5e565b9150612a1b826135ae565b602082019050919050565b6000612a33603183612f5e565b9150612a3e826135d7565b604082019050919050565b6000612a56602c83612f5e565b9150612a6182613626565b604082019050919050565b6000612a79602083612f5e565b9150612a8482613675565b602082019050919050565b6000612a9c602983612f5e565b9150612aa78261369e565b604082019050919050565b6000612abf602f83612f5e565b9150612aca826136ed565b604082019050919050565b6000612ae2602183612f5e565b9150612aed8261373c565b604082019050919050565b6000612b05603183612f5e565b9150612b108261378b565b604082019050919050565b6000612b28602c83612f5e565b9150612b33826137da565b604082019050919050565b612b478161309f565b82525050565b6000612b598285612851565b9150612b658284612851565b91508190509392505050565b6000602082019050612b8660008301846127c1565b92915050565b6000608082019050612ba160008301876127c1565b612bae60208301866127c1565b612bbb6040830185612b3e565b8181036060830152612bcd81846127df565b905095945050505050565b6000602082019050612bed60008301846127d0565b92915050565b60006020820190508181036000830152612c0d8184612818565b905092915050565b60006020820190508181036000830152612c2e81612882565b9050919050565b60006020820190508181036000830152612c4e816128a5565b9050919050565b60006020820190508181036000830152612c6e816128c8565b9050919050565b60006020820190508181036000830152612c8e816128eb565b9050919050565b60006020820190508181036000830152612cae8161290e565b9050919050565b60006020820190508181036000830152612cce81612931565b9050919050565b60006020820190508181036000830152612cee81612954565b9050919050565b60006020820190508181036000830152612d0e81612977565b9050919050565b60006020820190508181036000830152612d2e8161299a565b9050919050565b60006020820190508181036000830152612d4e816129bd565b9050919050565b60006020820190508181036000830152612d6e816129e0565b9050919050565b60006020820190508181036000830152612d8e81612a03565b9050919050565b60006020820190508181036000830152612dae81612a26565b9050919050565b60006020820190508181036000830152612dce81612a49565b9050919050565b60006020820190508181036000830152612dee81612a6c565b9050919050565b60006020820190508181036000830152612e0e81612a8f565b9050919050565b60006020820190508181036000830152612e2e81612ab2565b9050919050565b60006020820190508181036000830152612e4e81612ad5565b9050919050565b60006020820190508181036000830152612e6e81612af8565b9050919050565b60006020820190508181036000830152612e8e81612b1b565b9050919050565b6000602082019050612eaa6000830184612b3e565b92915050565b6000612eba612ecb565b9050612ec6828261311d565b919050565b6000604051905090565b600067ffffffffffffffff821115612ef057612eef613255565b5b612ef982613284565b9050602081019050919050565b600067ffffffffffffffff821115612f2157612f20613255565b5b612f2a82613284565b9050602081019050919050565b600081519050919050565b600081519050919050565b600082825260208201905092915050565b600082825260208201905092915050565b600081905092915050565b6000612f858261309f565b9150612f908361309f565b9250827fffffffffffffffffffffffffffffffffffffffffffffffffffffffffffffffff03821115612fc557612fc46131c8565b5b828201905092915050565b6000612fdb8261309f565b9150612fe68361309f565b925082612ff657612ff56131f7565b5b828204905092915050565b600061300c8261309f565b91506130178361309f565b92508282101561302a576130296131c8565b5b828203905092915050565b60006130408261307f565b9050919050565b60008115159050919050565b60007fffffffff0000000000000000000000000000000000000000000000000000000082169050919050565b600073ffffffffffffffffffffffffffffffffffffffff82169050919050565b6000819050919050565b82818337600083830152505050565b60005b838110156130d65780820151818401526020810190506130bb565b838111156130e5576000848401525b50505050565b6000600282049050600182168061310357607f821691505b6020821081141561311757613116613226565b5b50919050565b61312682613284565b810181811067ffffffffffffffff8211171561314557613144613255565b5b80604052505050565b60006131598261309f565b91507fffffffffffffffffffffffffffffffffffffffffffffffffffffffffffffffff82141561318c5761318b6131c8565b5b600182019050919050565b60006131a28261309f565b91506131ad8361309f565b9250826131bd576131bc6131f7565b5b828206905092915050565b7f4e487b7100000000000000000000000000000000000000000000000000000000600052601160045260246000fd5b7f4e487b7100000000000000000000000000000000000000000000000000000000600052601260045260246000fd5b7f4e487b7100000000000000000000000000000000000000000000000000000000600052602260045260246000fd5b7f4e487b7100000000000000000000000000000000000000000000000000000000600052604160045260246000fd5b6000601f19601f8301169050919050565b7f455243373231456e756d657261626c653a206f776e657220696e646578206f7560008201527f74206f6620626f756e6473000000000000000000000000000000000000000000602082015250565b7f4552433732313a207472616e7366657220746f206e6f6e20455243373231526560008201527f63656976657220696d706c656d656e7465720000000000000000000000000000602082015250565b7f4f776e61626c653a206e6577206f776e657220697320746865207a65726f206160008201527f6464726573730000000000000000000000000000000000000000000000000000602082015250565b7f4552433732313a20746f6b656e20616c7265616479206d696e74656400000000600082015250565b7f4552433732313a207472616e7366657220746f20746865207a65726f2061646460008201527f7265737300000000000000000000000000000000000000000000000000000000602082015250565b7f4552433732313a20617070726f766520746f2063616c6c657200000000000000600082015250565b7f4552433732313a206f70657261746f7220717565727920666f72206e6f6e657860008201527f697374656e7420746f6b656e0000000000000000000000000000000000000000602082015250565b7f4552433732313a20617070726f76652063616c6c6572206973206e6f74206f7760008201527f6e6572206e6f7220617070726f76656420666f7220616c6c0000000000000000602082015250565b7f4552433732313a2062616c616e636520717565727920666f7220746865207a6560008201527f726f206164647265737300000000000000000000000000000000000000000000602082015250565b7f4552433732313a206f776e657220717565727920666f72206e6f6e657869737460008201527f656e7420746f6b656e0000000000000000000000000000000000000000000000602082015250565b7f45524337323155524953746f726167653a2055524920736574206f66206e6f6e60008201527f6578697374656e7420746f6b656e000000000000000000000000000000000000602082015250565b7f4552433732313a206d696e7420746f20746865207a65726f2061646472657373600082015250565b7f45524337323155524953746f726167653a2055524920717565727920666f722060008201527f6e6f6e6578697374656e7420746f6b656e000000000000000000000000000000602082015250565b7f4552433732313a20617070726f76656420717565727920666f72206e6f6e657860008201527f697374656e7420746f6b656e0000000000000000000000000000000000000000602082015250565b7f4f776e61626c653a2063616c6c6572206973206e6f7420746865206f776e6572600082015250565b7f4552433732313a207472616e73666572206f6620746f6b656e2074686174206960008201527f73206e6f74206f776e0000000000000000000000000000000000000000000000602082015250565b7f4552433732314d657461646174613a2055524920717565727920666f72206e6f60008201527f6e6578697374656e7420746f6b656e0000000000000000000000000000000000602082015250565b7f4552433732313a20617070726f76616c20746f2063757272656e74206f776e6560008201527f7200000000000000000000000000000000000000000000000000000000000000602082015250565b7f4552433732313a207472616e736665722063616c6c6572206973206e6f74206f60008201527f776e6572206e6f7220617070726f766564000000000000000000000000000000602082015250565b7f455243373231456e756d657261626c653a20676c6f62616c20696e646578206f60008201527f7574206f6620626f756e64730000000000000000000000000000000000000000602082015250565b61383281613035565b811461383d57600080fd5b50565b61384981613047565b811461385457600080fd5b50565b61386081613053565b811461386b57600080fd5b50565b6138778161309f565b811461388257600080fd5b5056fea2646970667358221220267ec320c6098c152fe15b22162519c28498a523f96ea7a55a9058525f18f45264736f6c63430008040033",
  "linkReferences": {},
  "deployedLinkReferences": {}
}